15:22:36.586694 ARP, Request who-has 10.0.0.9 tell 10.0.0.3, length 28
	0x0000:  ffff ffff ffff 0000 0000 0003 0806 0001  ................
	0x0010:  0800 0604 0001 0000 0000 0003 0a00 0003  ................
	0x0020:  0000 0000 0000 0a00 0009                 ..........
15:22:37.582821 ARP, Request who-has 10.0.0.9 tell 10.0.0.3, length 28
	0x0000:  ffff ffff ffff 0000 0000 0003 0806 0001  ................
	0x0010:  0800 0604 0001 0000 0000 0003 0a00 0003  ................
	0x0020:  0000 0000 0000 0a00 0009                 ..........
15:22:38.583595 ARP, Request who-has 10.0.0.9 tell 10.0.0.3, length 28
	0x0000:  ffff ffff ffff 0000 0000 0003 0806 0001  ................
	0x0010:  0800 0604 0001 0000 0000 0003 0a00 0003  ................
	0x0020:  0000 0000 0000 0a00 0009                 ..........

